:101FB600C2817F647E00121F04D2817F647E00028C
:021FC6001F04F6
:10182500C2817FC87E00121F04D2817FC87E00124C
:101835001F04C2817FC87E00121F04D2817FC87E2B
:1018450000121F04C2817FC87E00121F04D2817F4F
:10185500C87E00121F04C2817FC87E00121F04D2F9
:10186500817FC87E00121F04C2817FC87E00121FBF
:0A18750004D2817FC87E00021F0428
:101F0400D3EF9400EE940040147D6E7C00ED1D70C0
:0D1F1400011CED4C70F7EF1F70E61E80E31E
:011F2100229D
:0B1FE200EF1FAC0670011E4C70F622D1
:0C1FC8001558155815581558155815587F
:011FD40022EA
:101F7500EF1FAA0670011E4A600BE4FDEDC3947DB8
:051F850050EE0D80F795
:011F8A002234
:101BA700E4FE75700220B707AD700570ED70F61290
:101BB7001FC8121FC8121FC830B71275750175707C
:101BC7000230B70CAD700570ED600580F4E4F57573
:0C1BD700EF25E0FFE57542070EBE08C6D2
:011BE30022DF
:1013E900C2B77F147E00121F75D2B7121FC8121F11
:1013F900C8121FC8D2B720B75075700220B707AFFF
:10140900700570EF70F675700230B707AF70057030
:10141900EF70F6121BA78F6D121BA78F72121BA7F5
:101429008F6F121BA78F73121BA78F6AD2B7E56D37
:101439002572256F2573F569B56A0E856D6B857201
:101449006E856F6C857371F5697F8F121F22E56B4D
:1014590075F00A8475F00A84E5F02430FF121F3E06
:0E146900E56B75F00A84E5F02430FF021F3EAB
:101F5A00D2B67F057E00121F04C2B67FF47E01123C
:0B1F6A001FE2D2B67F3C7E00021FE2A7
:101E8F00E4F55DF55EF55DC2B6E55EC313F55ED2B2
:101E9F00B630B603435E807F0F7E00121FE2055DF2
:091EAF00E55DC3940840E0AF5E5C
:011EB8002207
:021EB9008F5D3B
:101EBB00E4F55EF55EC2B6E55D1392B67F0F7E006C
:101ECB00121FE2D2B6E55DC313F55D055EE55EC399
:041EDB00940840E146
:011EDF0022E0
:10168900121F5A7FCC121EB97F44121EB9121F5A5B
:101699007FCC121EB97FBE121EB9121E8F8F5C122B
:1016A9001E8F757A008F7BE57B757B00F57AE55C8B
:1016B900427BC3E57B94FFE57A94FF5004C2008026
:1016C90013E57BF4FFE57AF4FEEF2401F57BE43EB4
:1016D900F57AD200AC7AAD7BE4120131E4FBFA79F8
:0D16E90020783F12002612016A8E7A8F7B56
:0116F60022D1
:101F22008F5DC285C2867FC87E00121FE2D287857E
:0C1F32005DA07FC87E00121FE2C2872263
:101F3E008F5DD285C2867FC87E00121FE2D2878552
:0C1F4E005DA07FC87E00121FE2C2872247
:101BE4007FA07E0F121FE27F30121F227F647E00CF
:101BF400121FE27F30121F227F257E00121FE27F18
:101C04000C121F227F647E00121FE27F01121F222A
:0C1C14007F107E27121FE27F06021F22B5
:101C93008B5A8A5B895C121F227F05801CAB5AAA70
:101CA3005BA95C1201EBFF6017121F3E7401255CF8
:101CB300F55CE4355BF55B7F647E00121FE280DD3B
:011CC30022FE
:101C5A007590F0E59054F0F55A64F060297F057E9E
:101C6A0000121F04E55A64F0601CE59054F0F55A1E
:101C7A00440FF590E590540FFFE590540FFEBE0F08
:081C8A00F8E55A4FFF227FFF2D
:011C9200222F
:1016F700121C5AEF120267175677174A7B173E7D5F
:1017070017327E1759B7174DBB1741BD1735BE178F
:101717005CD71750DB1744DD1738DE175FE7175321
:10172700EB1747ED173BEE000017627F0A227F0396
:10173700227F02227F01227F0B227F06227F052242
:101747007F04227F0C227F09227F08227F07227FC6
:0E17570010227F0F227F00227F0D227F322280
:1002BF002D2D2D2DB2CBB5A5B9DCC0ED2D2D2D2DAE
:1002CF00002D3EC9E8D6C3C4BFB1EACAD6BBFABA3D
:1002DF00C5002020C9E8D6C3B6CCD0C5D6D0D0C46F
:1002EF00BAC5002020C9E8D6C3B1A8BEAFCEC2B6EA
:1002FF00C82020002020C9E8D6C3C4BFB1EACAD69F
:10030F00BBFABAC5002D3EC9E8D6C3B6CCD0C5D608
:10031F00D0D0C4BAC5002D3EC9E8D6C3B1A8BEAF70
:10032F00CEC2B6C82020002D3EC9E8D6C3B1A8BEA4
:10033F00AFCAAAB6C82020002020C9E8D6C3D1CCA6
:10034F00CEEDC5A8B6C82020002020B0E6B1BED0A3
:10035F00C5CFA2202020202020002020C9E8D6C30E
:10036F00B1A8BEAFCAAAB6C82020002D3EC9E8D694
:10037F00C3D1CCCEEDC5A8B6C82020002D3EB0E627
:10038F00B1BED0C5CFA2202020202020002D2DC906
:10039F00E8D6C3CAD6BBFABAC52D2D2020002D3EF4
:1003AF00C7EBCAE4C8EBA3BA2020202020200020EE
:1003BF00202020202020202020202020202020004E
:1003CF002020C8B7C8CF20202020C8A1CFFB2020D5
:1003DF00002020C7EBCAE4C8EBA3BA2020202020BE
:1003EF0020002D3EC8B7C8CF20202020C8A1CFFBAA
:1003FF002020002020C8B7C8CF20202D3EC8A1CF75
:10040F00FB2020002D3EB1A8BEAFC9CFCFDEA3BACF
:10041F0020202020002020B1A8BEAFC9CFCFDEA35F
:10042F00BA00C9E8D6C3B1A8BEAFD1CCCEEDC5A82E
:10043F00B6C8002D2D2D2DB0E6B1BED0C5CFA22D43
:10044F002D2D2D0020202020202076312E30202011
:10045F002020202000BFAAB7A2C8CBD4B1203A5386
:10046F004F4E475A4500CDF5CAF7B3AC2020202098
:10047F00D5C5BDADB7E6000005010600FF1CF501AF
:10048F0000020900FF1DB30201030C00FF1DDF0373
:10049F0002040F00FF1D550403051200FF1E0B057C
:1004AF0004001500FF1E370608070600FF0C85071E
:1004BF0006080000FF1D250807060000FF19740934
:1004CF000B0A0901FF0B190A090B0101FF1D840B10
:1004DF000A090101FF19260C0E0D0C02FF0DAC0DC0
:1004EF000C0E0202FF1A9A0E0D0C0202FF19BF0F1B
:1004FF0011100F03FF0EBC100F110303FF1ADE11B3
:10050F00100F0303FF1A081214131204FF0FCC135A
:10051F0012140404FF1B221413120404FF1A5115A2
:0F052F0015151505FF1E630000000000000000F9
:10176500013100012F000134010121010130010186
:1017750032010133010135010D3600000000000082
:1017850000000000000000034C03000003520000AD
:1017950000034F0000000349060000034605000052
:0F17A5000D223331303839303431303546300091
:101CF5007BFF7A0279BF7F80121C937BFF7A027982
:101D0500D07F90121C937BFF7A0279E17F88121CA9
:101D1500937BFF7A0279F27F98121C937521012239
:101DB3007BFF7A0279BF7F80121C937BFF7A0379C2
:101DC300037F90121C937BFF7A0379147F88121C84
:0C1DD300937BFF7A0279F27F98021C9348
:101DDF007BFF7A0279BF7F80121C937BFF7A037996
:101DEF00037F90121C937BFF7A0279E17F88121C8C
:0C1DFF00937BFF7A0379257F98021C93E8
:101D55007533017BFF7A0279BF7F80121C937BFF6D
:101D65007A0379367F90121C937BFF7A0379477F3C
:0F1D750088121C937BFF7A0379587F98021C9386
:101E0B007BFF7A0279BF7F80121C937BFF7A037969
:101E1B00697F90121C937BFF7A03797A7F88121C5F
:0C1E2B00937BFF7A0379587F98021C9388
:101E37007BFF7A0279BF7F80121C937BFF7A03793D
:101E4700697F90121C937BFF7A0379477F88121C66
:0C1E5700937BFF7A03798B7F98021C9329
:100C8500E4F5587BFF7A03799C7F80121C937BFFE8
:100C95007A0379AD7F90121C937BFF7A0379BE7F2F
:100CA50088121C937BFF7A0379CF7F98121C93E5FA
:100CB5002120E003020DAB1216F78F59E559643276
:100CC50060EDE558C3940C4003020D85E5587005A9
:100CD5007F88121F227F0F121F22E559B40E004094
:100CE50003020D7B900CF0F8282873020D1A020DF3
:100CF50023020D2C020D35020D3E020D47020D504B
:100D0500020D59020D62020D6B020D7B020D7B0275
:100D15000D7B020D7474362558F87630805874367C
:100D25002558F87631804F74362558F87632804646
:100D350074362558F87633803D74362558F8763460
:100D4500803474362558F87635802B74362558F856
:100D55007636802274362558F8763780197436250C
:100D650058F87638801074362558F8763980077427
:100D7500362558F8764674362558F8E6FF121F3E94
:100D85000558E558C3940C500FE559640C6009E506
:100D95005964106003020CB474362558F8E4F6F56E
:060DA500217F0C121F2249
:010DAB002225
:101D25007BFF7A03799C7F80121C937BFF7A037972
:101D3500E07F90121C937B007A0079367F88121C15
:101D4500937BFF7A0379F17F98121C937521012209
:101974007BFF7A0379BE7F88121C937B007A0079FF
:1019840036121FA17D007B007A0079361202937B08
:10199400FF7A03799C7F80121C937BFF7A0379E0A2
:1019A4007F90121C937B007A0079367F88121C93F7
:0B19B4007BFF7A0479027F98021C93ED
:100B1900E4F5587BFF7A0279E17F80121C937BFF11
:100B29007A0379AD7F90121C937BFF7A0379BE7F9C
:100B390088121C937BFF7A0379CF7F98121C93E567
:100B49003020E003020C841216F78F59E5596432FC
:100B590060EDE558C3940C4003020C19E558700583
:100B69007F88121F227F0F121F22E559B40E004001
:100B790003020C0F900B84F8282873020BAE020BAA
:100B8900B7020BC0020BC9020BD2020BDB020BE44A
:100B9900020BED020BF6020BFF020C0F020C0F0207
:100BA9000C0F020C0874222558F8763080587422EC
:100BB9002558F87631804F74222558F876328046C8
:100BC90074222558F87633803D74222558F87634F6
:100BD900803474222558F87635802B74222558F8EC
:100BE9007636802274222558F876378019742225A2
:100BF90058F87638801074222558F87639800774A9
:100C0900222558F8764674222558F8E6FF121F3E29
:100C19000558E558C3940C500FE559640C6009E573
:100C29005964106003020B4874362558F8E4F6F548
:100C3900307F0C121F22E4FFEF25E02422F8C000C8
:100C4900E6FEEF25E02423F8E66ED000F6EF25E076
:100C59002423F8C000E6FEEF25E02422F8E66ED052
:100C690000F6EF25E02422F8C000E6FEEF25E02497
:0B0C790023F8E66ED000F60FBF06BDAA
:010C8400224D
:101D84007530017BFF7A0279E17F80121C937BFF1F
:101D94007A0379E07F90121C937B007A0079227F8A
:0F1DA40088121C937BFF7A0379F17F98021C93BE
:101926007530017B007A007922121FA17D007B00B1
:101936007A0079221202937BFF7A0379BE7F88129E
:101946001C937BFF7A0279E17F80121C937BFF7ADE
:101956000379E07F90121C937B007A0079227F88BE
:0E196600121C937BFF7A0479027F98021C9377
:100DAC00E4F558F5597BFF7A0279F27F80121C9397
:100DBC007BFF7A0479137F90121C937BFF7A037963
:100DCC00BE7F88121C937BFF7A0379CF7F98121C0D
:100DDC0093E53220E003020EBB1216F78F59E5594A
:100DEC00643260EDE558C394024003020E9BE55853
:100DFC00700A7F96121F227F0F121F22E559B40A28
:100E0C00004003020E8F900E19F8282873020E373B
:100E1C00020E40020E49020E52020E5B020E6402DA
:100E2C000E6D020E76020E7F020E88744C2558F859
:100E3C00E4F6804F744C2558F876018046744C25A6
:100E4C0058F87602803D744C2558F876038034743B
:100E5C004C2558F87604802B744C2558F876058070
:100E6C0022744C2558F876068019744C2558F8765F
:100E7C00078010744C2558F876088007744C255858
:100E8C00F87609744C2558F8E62430FF121F3E05FD
:100E9C0058E558C39402500FE559640C6009E559A4
:0F0EAC0064106003020DDDE4F5327F0C121F228B
:010EBB002214
:101A9A007532017BFF7A0279F27F80121C937BFFF9
:101AAA007A0479247F90121C937F96121F22E54CA8
:101ABA002430FF121F3EE54D2430FF121F3E7BFFEC
:101ACA007A0379BE7F88121C937BFF7A0379F17FB0
:041ADA0098021C93BF
:1019BF00753201E4F54CF54D7BFF7A0279F27F80A9
:1019CF00121C937BFF7A0479247F90121C937F96CD
:1019DF00121F22E54C2430FF121F3EE54D2430FF2D
:1019EF00121F3E7BFF7A0379BE7F88121C937BFF09
:0919FF007A0479027F98021C931E
:100EBC00E4F558F5597BFF7A0379697F80121C930E
:100ECC007BFF7A0479137F90121C937BFF7A037952
:100EDC00BE7F88121C937BFF7A0379CF7F98121CFC
:100EEC0093E53320E003020FCB1216F78F59E55927
:100EFC00643260EDE558C394024003020FABE55831
:100F0C00700A7F96121F227F0F121F22E559B40A16
:100F1C00004003020F9F900F29F8282873020F47F7
:100F2C00020F50020F59020F62020F6B020F740274
:100F3C000F7D020F86020F8F020F9874492558F807
:100F4C00E4F6804F74492558F8760180467449259B
:100F5C0058F87602803D74492558F876038034742D
:100F6C00492558F87604802B74492558F876058065
:100F7C002274492558F87606801974492558F87654
:100F8C0007801074492558F876088007744925584D
:100F9C00F8760974492558F8E62430FF121F3E05EF
:100FAC0058E558C39402500FE559640C6009E55993
:0F0FBC0064106003020EEDE4F5337F0C121F2268
:010FCB002203
:101ADE007533017BFF7A0379697F80121C937BFF3C
:101AEE007A0479247F90121C937F96121F22E54967
:101AFE002430FF121F3EE54A2430FF121F3E7BFFAB
:101B0E007A0379BE7F88121C937BFF7A0379F17F6B
:041B1E0098021C937A
:101A0800753301E4F549F54A7BFF7A0379697F80EC
:101A1800121C937BFF7A0479247F90121C937F9683
:101A2800121F22E5492430FF121F3EE54A2430FFE9
:101A3800121F3E7BFF7A0379BE7F88121C937BFFBF
:091A48007A0479027F98021C93D4
:100FCC00E4F558F5597BFF7A0479317F80121C9334
:100FDC007BFF7A0479137F90121C937BFF7A037941
:100FEC00BE7F88121C937BFF7A0379CF7F98121CEB
:100FFC0093E53520E0030210DB1216F78F59E55903
:10100C00643260EDE558C3940240030210BBE5580E
:10101C00700A7F96121F227F0F121F22E559B40A05
:10102C000040030210AF901039F8282873021057B3
:10103C0002106002106902107202107B021084020E
:10104C00108D02109602109F0210A874462558F8B5
:10105C00E4F6804F74462558F87601804674462590
:10106C0058F87602803D74462558F876038034741F
:10107C00462558F87604802B74462558F87605805A
:10108C002274462558F87606801974462558F87649
:10109C0007801074462558F8760880077446255842
:1010AC00F8760974462558F8E62430FF121F3E05E1
:1010BC0058E558C39402500FE559640C6009E55982
:0F10CC0064106003020FFDE4F5357F0C121F2244
:0110DB0022F2
:101B22007535017BFF7A0479317F80121C937BFF2C
:101B32007A0479247F90121C937F96121F22E54625
:101B42002430FF121F3EE5472430FF121F3E7BFF69
:101B52007A0379BE7F88121C937BFF7A0379F17F27
:041B620098021C9336
:101A5100753501E4F546F5477BFF7A0479317F80DE
:101A6100121C937BFF7A0479247F90121C937F963A
:101A7100121F22E5462430FF121F3EE5472430FFA6
:101A8100121F3E7BFF7A0379BE7F88121C937BFF76
:091A91007A0479027F98021C938B
:101E63007BFF7A0479427F80121C937BFF7A04798B
:101E7300537F90121C937BFF7A0479647F88121C32
:0C1E8300937BFF7A0479757F98021C9312
:10160B001216F7EF24F5601D14602924FD604914B0
:10161B00603124067045E53175F008A42487F58206
:10162B00E43404802BE53175F008A42488F582E4BA
:10163B003404801CE53175F008A42489F582E43468
:10164B0004800DE53175F008A4248AF582E4340496
:10165B00F583E493F5318003752F01E53175F008BF
:10166B00A4248BF582E43404F583E493FB74019397
:0E167B00FA740293F98B438A44F54502028DFE
:1011C7002D2DD6C7C4DCBCE0BFD8CFB5CDB32D2DF0
:1011D70000CEC2B6C8203A00CAAAB6C8203A00D183
:1011E700CCCEED203A00B7C0B5C1203A4F4B00B77F
:1011F700C0B5C1203ABFAA00CEC2B6C8B1A8BEAF1B
:10120700B4CECAD2D1B9BB00202020202020202074
:10121700202020202020202000D3C3BBA7BAC5C28E
:10122700EBCEB4C9E8B6A8312000CAAAB6C8B1A89F
:10123700BEAFB4CECAD2D1B9BB00D3C3BBA7BAC560
:10124700C2EBCEB4C9E8B6A8322000D1CCCEEDB1FE
:10125700A8BEAFB4CECAD2D1B9BB00D3C3BBA7BA5D
:10126700C5C2EBCEB4C9E8B6A8332000D3D0C8CBEB
:10127700B4B3C8EB00D3C3BBA7BAC5C2EBCEB4C9DE
:0F128700E8B6A8202000B7C0B5C1203AB9D800FA
:0717B4000377000000C101F2
:1010DC007BFF7A1179C77F80121C937F90121F229D
:1010EC007F54121F3E7F3A121F3EE54C2430FF12F4
:1010FC001F3EE54D2430FF121F3E7F20121F3E7F06
:10110C0020121F3E7F52121F3E7F3A121F3EE549AE
:10111C002430FF121F3EE54A2430FF121F3E7F2071
:10112C00121F3E7F20121F3E7F46121F3E7F3A1237
:10113C001F3EE5462430FF121F3EE5472430FF12C8
:10114C001F3E7BFF7A1179D87F88121C937BFF7A24
:10115C001179DF7F8C121C937BFF7A1179E67F98D3
:10116C00121C937BFF7A1179ED7F9C121C937F8B61
:10117C00121F221216897C037DE81202047E007F66
:10118C0064CFCDCFCECCCE1202048F771216897CD1
:10119C00007D641202047E007F0ACFCDCFCECCCE70
:1011AC001202048F78E5772430FF121F3EE5782475
:0B11BC0030FF121F3E1213E9021B66F9
:10093B00E4F555F556121BE41212961210DC121345
:10094B004E1216F78F57E557B401177BFF7A1179C3
:10095B00F67F9C121C93D2017F887E13121F041208
:10096B001825E557B40D0BE4F52F12160BE52FB434
:10097B0001F8E577C3954C404BE578D3954D404452
:10098B007B007A007936121FA1D3EF940AEE6480B4
:10099B0094804013E5096007120757150980257BE2
:1009AB00FF7A1179FF80067BFF7A1279207F9012F4
:1009BB001C937FE87E03121F047BFF7A12790F7F53
:1009CB0090121C93E56B75F00A8475F00A84E5F0C0
:1009DB00C395494051E56B75F00A84E5F0C3954A20
:1009EB0040447B007A007936121FA1D3EF940AEEB4
:1009FB00648094804013E508600712075715088040
:100A0B00257BFF7A12793180067BFF7A1279417F41
:100A1B0090121C937FE87E03121F047BFF7A1279DE
:100A2B000F7F90121C93AE7CAF7D7C007D0A12026F
:100A3B0004C3EF9546EE94004058AE7CAF7D7C002E
:100A4B007D0A120204C3ED9547EC940040447B00F1
:100A5B007A007936121FA1D3EF940AEE648094804A
:100A6B004013E51F6007120757151F80257BFF7A80
:100A7B0012795280067BFF7A1279627F90121C9357
:100A8B007FE87E03121F047BFF7A12790F7F90128F
:100A9B001C9320010302094620B503020946E4F525
:100AAB0055F556D2020556E556700205557BFF7A71
:100ABB001279737F9C121C93121FB6E55664014585
:100ACB00557035FB7A007936121FA1D3EF940AEEDD
:100ADB00648094804005120757801D7BFF7A127942
:100AEB007C7F90121C937FE87E03121F047BFF7A9E
:100AFB0012790F7F90121C931216F7BF02A77BFF80
:0E0B0B007A12798D7F9C121C93C2010209465A
:10053E004F4B002020202020202020202020202073
:10054E002020200047534D20C1AACDF8D6D02E2E04
:10055E002E2020200047534D20C1AACDF84F4B200E
:10056E00202020202000B7A2CBCDB6CCD0C5D6D02F
:10057E002E2E2E20202000BAC5C2EBD0C5CFA2B79A
:10058E00A2CBCDCDEAB1CF00CEC2B6C8D0C5CFA2D8
:10059E00B7A2CBCDCDEAB1CF00CAAAB6C8D0C5CFCF
:1005AE00A2B7A2CBCDCDEAB1CF00D1CCCEEDD0C586
:1005BE00CFA2B7A2CBCDCDEAB1CF00B7C0B5C1D0D7
:1005CE00C5CFA2B7A2CBCDCDEAB1CF00B7A2CBCDCE
:1005DE00CDEAB1CF2020202020202020002B434D1B
:1005EE005449007265706F72740041540D0041548D
:1005FE002B43504D533D224D54222C224D54222C30
:10060E00224D54220D0041542B434E4D493D322C68
:10061E00310D0041542B434D47463D310D004154A1
:10062E002B434D47523D310D0041542B434D474412
:10063E003D310D0041542B434D47463D300D004199
:10064E00542B43534D503D31372C3136372C302CF3
:10065E00380D0041542B435343533D47534D0D002A
:10066E0041542B434D47533D38340D00303839310A
:10067E003638003131303030423831003030303899
:10068E004137003436354635333532344436384307
:10069E0030364434423733414635383833364532B6
:1006AE0039354541363445334146463141003030C7
:1006BE003243364537463545413634453341464655
:1006CE0031410030303243373044463936464536B4
:1006DE004435333545413634453341464631410084
:1006EE00303032433936333237364437364236338A
:1006FE0035453338333030320030303243363730D0
:10070E003934454241393545463531363533303049
:10071E00320030303330003030333100303033324D
:10072E000030303333003030333400303033350066
:10073E00303033360030303337003030333800301D
:09074E0030333900354541360015
:0E17BB00011E00C102011F0A010905010804F8
:101F8B00759850E4F587438920758DFD758BFDD2CF
:061F9B008ED2ACD2AF2291
:060003007BFF7A0579F88D
:10000900C2AC1201EB6010F5993099FDC2997401E7
:0A00190029F9E43AFA80EBD2AC2298
:0C1FD5007F14780AE4F608DFFCE4F51E37
:011FE10022DD
:061EE0007BFF7A05793E4C
:101EE6008B5A8A5B895C8B608A6189627B007A0087
:0E1EF600790A121589E94A4B6002D322C322F1
:10150300EFB40A00506F901510F828287302152EB7
:101513000215300215380215400215480215500213
:10152300155802156002156802157080487BFF7A12
:1015330007792580467BFF7A07792A803E7BFF7AED
:1015430007792F80367BFF7A077934802E7BFF7AE9
:1015530007793980267BFF7A07793E801E7BFF7AE5
:1015630007794380167BFF7A077948800E7BFF7AE1
:1015730007794D80067BFF7A0779201200097FE8FF
:061583007E03121F04228A
:1017CA00121689AB07AA067C037DE81202047E0082
:1017DA007F64CFCDCFCECCCE1202048F5AAE02AFE9
:1017EA00037C007D641202047E007F0ACFCDCFCE37
:1017FA00CCCE1202048F5B7F90121F227F54121FDD
:10180A003EE55A2430FF121F3EE55B2430FF121FCB
:0B181A003EAF5A121503AF5B0215032E
:101C2000E56B75F00A8475F00A8485F05AE56B75EA
:101C3000F00A8485F05B7F92121F227F52121F3EB2
:101C4000E55A2430FF121F3EE55B2430FF121F3E91
:0A1C5000AF5A121503AF5B02150333
:10187F00E4FBFA7F94121F227F46121F3EC203120F
:10188F0018D4EF75F064A4FFAEF07C007DFF120258
:10189F0004AA06AB077C007D0A1202048F5AAE021F
:1018AF00AF037C007D0A1202048D5BE55A2430FFE2
:1018BF00121F3EE55B2430FF121F3EAF5A12150375
:0518CF00AF5B021503F0
:10129600121F8B121FD5121EE0400C1200037FF4A2
:1012A6007E01121F0480EF7BFF7A0579417F901241
:1012B6001C937BFF7A0579527F90121C93121FD5DF
:1012C6007BFF7A0579FC1200097FF47E01121F0468
:1012D600121EE050FB121FD57BFF7A06791412000E
:1012E600097FF47E01121F04121EE050FB121FD567
:1012F6007BFF7A0679211200097FF47E01121F0412
:10130600121EE050FB121FD57BFF7A0679371200BA
:10131600097FF47E01121F04121EE050FB121FD536
:101326007BFF7A0579417F90121C937BFF7A0579C2
:10133600637F90121C937FD07E07121F047BFF7A77
:081346000579417F90021C9320
:100757007BFF7A0579417F90121C937BFF7A05799D
:10076700747F88121C937BFF7A0579417F80121C66
:10077700937BFF7A0579417F98121C937FD07E0780
:10078700121F041200037FF47E01121F047BFF7AFD
:100797000679421200097FF47E01121F04C2807B92
:1007A700FF7A06794D1200097FF47E01121F047B40
:1007B700FF7A0679611200097FF47E01121F047B1C
:1007C700FF7A06796E1200097FF47E01121F047BFF
:1007D700FF7A06797A1200097B007A0079221200E3
:1007E700097A0079227F80121C937FF47E01121F01
:1007F700047BFF7A067981120009E536643170447B
:10080700FFEF25E02436F8C000E6FEEF25E02437A9
:10081700F8E66ED000F6EF25E02437F8C000E6FED4
:10082700EF25E02436F8E66ED000F6EF25E0243613
:10083700F8C000E6FEEF25E02437F8E66ED000F6B4
:100847000FBF06BD7B007A0079367F80121C937F2D
:10085700E87E03121F047B007A0079361200097BB9
:10086700FF7A0579857F80121C937BFF7A06798A48
:100877001200097A0679911200091217CAD2807BF1
:10088700FF7A0579967F80121C937FF47E01121FF1
:10089700047BFF7A0779521200097FF47E01121F49
:1008A700047BFF7A0679BC120009121C207BFF7AB1
:1008B7000579A77F80121C937BFF7A0679D11200F6
:1008C7000912187F7BFF7A0579B87F80121C937F06
:1008D700F47E01121F047BFF2002097A0679EE12CB
:1008E700000980097A077907120009C2027BFF7A9B
:1008F7000579C97F80121C937FF47E01121F047B48
:10090700FF7A0579417F80121C9375991A7FD07EF3
:1009170007121F047FD07E07121F047BFF7A057919
:10092700DA7F90121C937BFF7A0579417F88121C2E
:04093700930212967F
:10134E007560FF7561057562EB7B007A00790A1294
:10135E001589E94A4B70030213E8121FD57FE87E08
:10136E0003121F047BFF7A06792C1200097FE87E98
:10137E0003121F047560FF7561057562F17B007ABB
:10138E0000790A121589E94A4B6034E4F558F5598B
:10139E00C2807F647E00121F04D2807F647E0012A2
:1013AE001F040559E55970020558C39408E5589471
:1013BE000040DD751F0A75090575080412075712DE
:1013CE001FD57FF47E01121F047BFF7A0679371238
:0A13DE000009121EE050FB121FD59B
:0113E80022E2
:03002300021CC4F8
:101CC400C0E0C0D075D000C000C2AC309902C29947
:101CD400309817C298740A251EF8A699051EE51EA9
:101CE400D394144003751E00D2ACD000D0D0D0E001
:011CF40032BD
:1018D400E4FFFEC2B3D2B4C2B2D2B3C2B3D2B4D262
:1018E400B3C2B3A20392B4D2B3C2B3D2B4FDD2B3DF
:1018F400C2B3EF25E0FF30B4034307010DBD08EE8A
:10190400E4FDEEC313FE30B403430680D2B3C2B386
:101914000DBD08EED2B3D2B2D2B4EFB50601227F28
:0119240000C2
:01192500229F
:101B6600C2031218D4EF75F064A4FFAEF07C007DBA
:101B7600FF1202048E7C8F7D7F9B121F22AE7CAFEC
:101B86007D7C007D0A120204EF2430FF121F3EAE58
:101B96007CAF7D7C007D0A120204ED2430FF021F1B
:011BA6003E00
:10002600EC4D6011E8497017ED33EC3304600DE4D4
:10003600FCFFFEFD22E933E8330470F80201D61214
:1000460001A158046009E4CC248150062850090215
:1000560001E02840030201DDC0E0EB4A7044B980AC
:1000660006D0E0FB0201CCEF4E701CBD8008EBFF12
:10007600EAFEE9FD80EBE98DF0A4FEE5F002010F52
:10008600E9CDF9EAFEEBFFEF89F0A4FCE5F0CE89B5
:10009600F0A42EFFE435F0CD89F0A42DFEE435F072
:1000A6008067EF4E7005BD80D780C3EF8BF0A4ACA0
:1000B600F0EE8BF0A42CFCE435F0F8EF8AF0A42CDB
:1000C600E5F038FCE433CB8DF0A42CFCE5F03BF8EE
:1000D600EE8AF0A42CFCE5F038F8E433CF89F0A4DE
:1000E6002CFCE5F038CF3400CE89F0A42FFFE5F0E4
:1000F6003EFEE433C98DF0A42EFEE5F039CD8AF03C
:10010600A42FFFE5F03EFEE43DFD33D0E0FB5007B3
:100116000BBB000F0201E0EC2CFCEF33FFEE33FECD
:06012600ED33FD0201B8FB
:10012C0075F020800E75F010800575F0087D007E4E
:10013C00007F003392D530D503120259EC334010B6
:10014C00EF33FFEE33FEED33FDEC33FCD5F0ED2257
:0E015C00E5F0247EA2D513CC92E7CDCEFF2293
:10016A00EDD2E7CD33EC3392D524814006E4FFFE8D
:10017A00FDFC22FCE4CFCECDCC24E0501174FF80EC
:10018A00EDC3CC13CCCD13CDCE13CECF13CF047089
:07019A00F030D5DE0202592E
:1001A100E9D2E7C933E833F892D5EDD2E7CD33ECA4
:0701B10033FC5002B2D5221D
:1001B800EC30E7100FBF000C0EBE00080DBD0004A8
:1001C8000BEB6014A2D5EB13FCED92E7FD2274FF54
:1001D800FCFDFEFF22E480F8A2D574FF13FC7D80AD
:0301E800E480EFC1
:0300000002147770
:0C147700787FE4F6D8FD75817D0214BE7C
:1001EB00BB010689828A83E0225002E722BBFE0212
:0901FB00E32289828A83E4932245
:10020400BC000BBE0029EF8DF084FFADF022E4CCDE
:10021400F875F008EF2FFFEE33FEEC33FCEE9DECA7
:10022400984005FCEE9DFE0FD5F0E9E4CEFD22EDED
:10023400F8F5F0EE8420D21CFEADF075F008EF2F37
:10024400FFED33FD4007985006D5F0F222C398FD28
:050254000FD5F0EA22C5
:0E025900C3E49FFFE49EFEE49DFDE49CFC22B6
:10026700D083D082F8E4937012740193700DA3A326
:1002770093F8740193F5828883E47374029368603A
:06028700EFA3A3A380DF3A
:06028D008A838982E473FC
:101FA100E4FFFE1201EB600C0FEF70010E09E97006
:051FB100F20A80EF229E
:101589008B5D8A5E895FAB60AA61A9621201EB601B
:1015990063AB5DAA5EA95F1201EB605F856063853D
:1015A90061648562658B668A678968AB63AA64A989
:1015B900651201EBFF6023AB66AA67A9681201EB0C
:1015C9006F7017042565F565E43564F564740125C4
:1015D90068F568E43567F56780D1AB63AA64A965E6
:1015E9001201EB7002800D7401255FF55FE4355E31
:1015F900F55E809DAB5DAA5EA95F227B007A0079CA
:021609000022BD
:10029300EF4E6012EF60010EEDBB010B89828A8382
:1002A300F0A3DFFCDEFA2289F05007F709DFFCA98F
:0C02B300F022BBFEFCF309DFFCA9F022E6
:1014830002093BE493A3F8E493A34003F68001F23B
:1014930008DFF48029E493A3F85407240CC8C3336A
:1014A300C4540F4420C8834004F456800146F6DF39
:1014B300E4800B0102040810204080901765E47E4D
:1014C300019360BCA3FF543F30E509541FFEE4932E
:1014D300A360010ECF54C025E060A840B8E493A3F5
:1014E300FAE493A3F8E493A3C8C582C8CAC583CA20
:1014F300F0A3C8C582C8CAC583CADFE9DEE780BED8
:0117C900001F
:00000001FF
