:100026006B65793120E68C89E4B88BEFBC8CE5856D
:1000360089E6A087E5B7A6E7A7BB0D0A006B657939
:100046003220E68C89E4B88BEFBC8CE58589E6A086
:1000560087E58FB3E7A7BB0D0A006B65793320E60A
:100066008C89E4B88BEFBC8CE58589E6A087E4B87B
:100076008AE7A7BB0D0A006B65793420E68C89E414
:10008600B88BEFBC8CE58589E6A087E4B88BE7A73B
:10009600BB0D0A006B65793520E68C89E4B88BEFD9
:1000A600BC8CE58589E6A087E4B88BE6BB9A0D0A89
:1000B600006B65793620E68C89E4B88BEFBC8CE55D
:1000C6008589E6A087E4B88AE6BB9A0D0A006B65C7
:1000D600793720E68C89E4B88BEFBC8CE9BCA0E6C6
:1000E600A087E5B7A6E994AE0D0A006B65793820BE
:1000F600E68C89E4B88BEFBC8CE9BCA0E6A087E56A
:100106008FB3E994AE0D0A00596F757220443132EF
:10011600206368697027732049442069733A200078
:100126002E20494420697320636F7272657263746E
:10013600210D0A0D0A002E20494420697320696E9C
:10014600636F727265726374210D0A0D0A002A2AA2
:100156002A2A2A2A2A2A2A2A2A2A2A2A2A2A2A2AF9
:100166002A2A2A2A2A2A2A2A2A2A2A2A2A2A2A2AE9
:100176002A2A2A2A2A2A2A2A2A2A2A2A2A2A2A2AD9
:100186002A2A2A2A2A2A2A2A2A2A2A2A2A2A2A2AC9
:100196002A2A0D0A000000000000000000000000EE
:1001A6000000000000000000000000000000000049
:1001B60000002A2A2A2A2A2A20202020202020203D
:1001C60020202020202020202020202020205553C1
:1001D60042E9BCA0E6A08720202020202020202065
:1001E6002020202020202020202020202020202009
:1001F60020202A2A2A2A2A2A0D0A000000000000A6
:1002060000000000000000000000000000000000E8
:100216000000000000002A2A2A2A2A2A202020205C
:1002260020202020202020202020202020202020C8
:100236002020415438395335322043505520202050
:1002460020202020202020202020202020202020A8
:10025600202020202A2A2A2A2A2A0D0A0000000005
:100266000000000000000000000000000000000088
:10027600000000000000000000002A2A2A2A2A2A7C
:100286002020202020202020202020202020202068
:100296002020E5BBBAE7AB8BE697A5E69C9FEFBCB3
:1002A6009A000000000000000000000000000000AE
:1002B6000000000000000000000000000000000038
:1002C6000000000000000000000000000000000028
:1002D60000000000000000000000000000004D616A
:1002E6007920323120323031380000000000000021
:1002F60000000000000000000000000000000000F8
:1003060000000000000000000000000000000000E7
:1003160000000000000000000000000000000000D7
:1003260000000000000000000000000000000000C7
:1003360000000000000000000000000000000000B7
:1003460000002020202020202020202020202020E7
:100356002020202A2A2A2A2A2A0D0A000000000024
:100366000000000000000000000000000000000087
:100376000000000000000000000000000000000077
:100386000000000000000000000000000000000067
:100396000000000000000000000000000000000057
:1003A6000000000000002A2A2A2A2A2A20202020CB
:1003B600202020202020202020202020202020E572
:1003C600BBBAE7AB8BE697B6E997B4EFBC9A0000E9
:1003D6000000000000000000000000000000000017
:1003E6000000000000000000000000000000000007
:1003F60000000000000000000000000000000000F7
:100406000000000000000000000032323A32313AAB
:10041600333800000000000000000000000000006B
:1004260000000000000000000000000000000000C6
:1004360000000000000000000000000000000000B6
:1004460000000000000000000000000000000000A6
:100456000000000000000000000000000000000096
:100466000000000000000000000000000000202046
:100476002020202020202020202020202020202076
:10048600202A2A2A2A2A2A0D0A0000000000000033
:100496000000000000000000000000000000000056
:1004A6000000000000000000000000000000000046
:1004B6000000000000000000000000000000000036
:1004C6000000000000000000000000000000000026
:1004D60000002A2A2A2A2A2A20202020202020201A
:1004E600202020202020202020202020E4BD9CE861
:1004F6008085EFBC9A6C69736F6E677A65202020E1
:1005060020202020202020202020202020202020E5
:100516002020202A2A2A2A2A2A0D0A000000000062
:1005260000000000000000000000000000000000C5
:100536000000000000002A2A2A2A2A2A2020202039
:1005460020202020202020202020202020202020A5
:10055600E6ACA2E8BF8EE8AEBFE997AEE4BD9CE884
:100566008085E79A8420202020202020202020201B
:1005760020202020202020202020202A2A2A2A2A43
:100586002A0D0A0000000000000000000000000024
:10059600000000000000000000002A2A2A2A2A2A59
:1005A600202020202020424C4F47EFBC9A687474CC
:1005B600703A2F2F7777772E6C69736F6E677A652F
:1005C6002E636E2020202020202020202020202086
:1005D6002020202020202020202A2A2A2A2A2A0DEC
:1005E6000A000000000000000000000000000000FB
:1005F60000000000000000000000000000002A2AA1
:100606002A2A2A2A2020202020204353444E2042F2
:100616004C4F47EFBC9A687474703A2F2F626C6F18
:10062600672E6373646E2E6E65742F736F6E677AB2
:10063600655F6C656520202020202020202A2A2A3C
:100646002A2A2A0D0A00000000000000000000000F
:100656000000000000000000000000000000000094
:1006660000002A2A2A2A2A2A202020202020E8AF31
:10067600B4E6988EEFBC9AE4BC98E58C96E794B500
:10068600E88491E59C88E59C88E79A84555342E97D
:10069600BCA0E6A08720202020202020202020208B
:1006A6002020202020202020202020202A2A2A2A1C
:1006B6002A2A0D0A000000000000000000000000C9
:1006C6000000000000002A2A2A2A2A2A20202020A8
:1006D6002020202020202020202020202020E8AFBD
:1006E600B7E68C894B312D4B38E58886E588ABE833
:1006F600BF9BE8A18CE6B58BE8AF95202020202093
:100706002020202020202020202020202A2A2A2ABB
:100716002A2A0D0A00000000000000000000000068
:10072600000000000000000000002A2A2A2A2A2AC7
:10073600202020204B313AE58589E6A087E5B7A63B
:10074600E7A7BB20204B323AE58589E6A087E58FEF
:10075600B3E7A7BB20204B333AE58589E6A087E4BB
:10076600B88AE7A7BB204B343AE58589E6A087E43B
:10077600B88BE7A7BB2020202A2A2A2A2A2A0D0A74
:1007860000000000000000000000000000002A2A0F
:100796002A2A2A2A202020204B353AE6BB9AE8BD91
:1007A600AEE4B88BE6BB9A20204B363AE6BB9AE815
:1007B600BDAEE4B88AE6BB9A20204B373AE9BCA026
:1007C600E6A087E5B7A6E994AE204B383AE9BCA087
:1007D600E6A087E58FB3E994AE2020202A2A2A2AAC
:1007E6002A2A0D0A00000000000000000000000098
:1007F60000002A2A2A2A2A2A2A2A2A2A2A2A2A2AA7
:100806002A2A2A2A2A2A2A2A2A2A2A2A2A2A2A2A42
:100816002A2A2A2A2A2A2A2A2A2A2A2A2A2A2A2A32
:100826002A2A2A2A2A2A2A2A2A2A2A2A2A2A2A2A22
:100836002A2A2A2A2A2A0D0A00000000000000009F
:1008460000000000000000000000000000000000A2
:0A0856000000000000000000000098
:1014750078247C007D007BFF7A08795C7E007F0400
:1014850012127A78D5E654C0F678D3E654C0F678C9
:10149500D1E6543F700D78D5E6700878D3E6700331
:1014A50002154878D1E630E00C7BFF7A00792612E8
:1014B5001A337525FB78D1E630E10C7BFF7A00798C
:1014C50043121A3375250578D1E630E20C7BFF7A95
:1014D500007960121A337526FB78D1E630E30C7B70
:1014E500FF7A00797D121A3375260578D1E630E446
:1014F5000C7BFF7A00799A121A337527FF78D1E6AB
:1015050030E50C7BFF7A0079B7121A33752701781D
:10151500D1E630E60C7BFF7A0079D4121A334324E6
:101525000178D1E630E70C7BFF7A0079F1121A33A6
:101535004324027B007A0079247D047F031215F28F
:0A154500750801E478D5F678D3F6B6
:01154F002279
:10190A00E4F524F525AE24AF257C007D6412130886
:10191A0074542FF974013EFA7BFF121A330525E538
:10192A002570020524C39412E5246480948040D56E
:01193A00228A
:10185800121A588E248F257BFF7A01790E121A33BB
:10186800AF25AE24121896E525B41210E524B4105D
:101878000B7BFF7A017926121A33800E7BFF7A01DF
:0D188800793C121A337EFF7FFF22E4FEFF41
:011895002230
:1017CC007FF4121AB1121AC08F24E52430E70312E9
:1017DC001B00E52430E603121A98E52430E00312CE
:1017EC0018D3E52430E103121A69E52430E2031220
:1017FC001B09E52430E303121A46E52430E40312F6
:0A180C001B12E52430E503121B1B3C
:0118160022AF
:10181700D2AF1219CC1219EA12190A121858121952
:10182700AD121A0720B2031217CCE51160F678D172
:10183700E6F4F5A0E50870ECF53E78D5E6700A7891
:10184700D3E6700578D1E66003121475753E018002
:01185700D3BD
:101A7A0030313233343536373839414243444546BA
:1019EA00C2AF53890F438920759850758DF4758B52
:0D19FA00F4438780D2ACD28ED29CD2AF22B3
:03002300021AA519
:0C1AA500309803C29832C299753D00329F
:0A1AEC008F99753D01E53D70FC2265
:101A33001212A0FF600C121AEC740129F9E43AFAAD
:031A430080EE2210
:08168D008F318E308D2F8C2E61
:10169500753209E47B0AFAF9F8AF31AE30AD2FACFB
:1016A5002E1213E3EB2430FF74332532F8A607AF6F
:1016B50031AE30AD2FAC2EE47B0AFAF9F81213E304
:1016C5008F318E308D2F8C2E1532C3E53264809488
:1016D5008050C0E4F53274332532F8E6B43007059E
:1016E50032E532B409F0C3E5326480948A500E7451
:0D16F500332532F8E6FF121AEC053280E9C9
:0117020022C4
:10189600E4F52C7526307527787D057A00EF540F10
:1018A600247AF582EA341AF583E493FC74262DF83B
:1018B600A604EEC4F854F0C868FEEFC4540F48FFFF
:0D18C6001DBD01D77B007A007926021A3380
:0A1AF600753D018F99E53D70FC225B
:10196800AE077F30121AF67F78121AF6EEC4540FBB
:10197800901A7A93FF121AF6EE540F93FF121AF682
:051988007F20021AF6A9
:0B1AE1005389F0438901D2A9D28C2266
:1019CC007590FFE478D1F618F678D4F678CFF678DF
:0E19DC00D2F608F678D5F6121AE1753E012211
:03000B0002176C6D
:10176C00C0E0C0D075D000C000C001758CDC758A9B
:10177C0010E53E6042E590F478CFF679CFE778D467
:10178C0066600B78D0760018E678D4F6802978D08D
:10179C0006E6C394014020760178D4E678D1F608A9
:1017AC00E6F4185678D346F678D1E6F4085678D590
:1017BC0046F678D1E608F6D001D000D0D0D0E03291
:10193B00E8AFBBE7ABAFE782B900E7BC93E586B294
:10194B00E58CBA00E5AD97E88A82E380820D0A0048
:0D195B000D0A00E58699E7ABAFE782B90001
:0C1AB100D2B5C2B68F80D2B67580FF227D
:031ABD00121AB149
:081AC000C2B5C2B7AF80D2B776
:011AC80022FB
:101A58007FFD121ABDAD077C00121AC0EFFEAF055C
:011A6800225B
:0C1AC900C2B5C2B68F80D2B67580FF2275
:08000300EF2440FF121ABD2298
:031B2E00021AB1E7
:051B24007FF2021AB17E
:10000E007F01121B2E7FF1121AB1E4FF121B2E7FFD
:04001E00F1021AB120
:081550008F258B268A278928CC
:10155800121B2E7FF0121AB1121AC0121AC08F2A4B
:10156800E52AD39D40028D2A7BFF7A19793B121A0E
:1015780033E525C313FFE4FCFDFE12168D7BFF7ACD
:10158800197945121A33AF2AE4FCFDFE12168D7B39
:10159800FF7A19794F121A33E4F529E529C3952AF8
:1015A8005036C2B7AB26AA27A92885298275830099
:1015B800E5801212E6D2B78529827583001212B926
:1015C800FF121968E52904540F70097BFF7A19790D
:1015D8005B121A33052980C3E52A540F60097BFF83
:0915E8007A19795B121A33AF2A5B
:0115F10022D7
:051B29007FFA021AB171
:0A15F2008F288D298B2A8A2B892C63
:1015FC00121B2E7FF0121AB1E4FF121AC9AF291276
:10160C001AC97BFF7A19795E121A33E528C313FFC6
:10161C00E4FCFDFE12168D7BFF7A197945121A3304
:10162C00AF29E4FCFDFE12168D7BFF7A19794F125F
:10163C001A33E4F52DE52DC39529502DC2B6AB2AEE
:10164C00AA2BA92C852D827583001212B9FFF58067
:10165C00D2B6121968E52D04540F70097BFF7A1964
:10166C00795B121A33052D80CCE529540F60097B68
:10167C00FF7A19795B121A337580FF121B29AF2977
:01168C00223B
:0E1A8A00AE077FD0121AB1EE4480FF021AC9D7
:101A1F00AE077FD8121AB1EE60047F018002E4FF97
:041A2F00121AC9229C
:10086000E696ADE5BC80555342E8BF9EE68EA5E313
:1008700080820D0A00E8BF9EE68EA5555342E380B4
:10088000820D0A00555342E680BBE7BABFE68C8270
:10089000E8B5B7E380820D0A00555342E680BBE716
:1008A000BABFE5A48DE4BD8DE380820D0A005553E7
:1008B00042E6A087E58786E8BE93E585A5E8AFB761
:1008C000E6B182EFBC9A00E88EB7E58F96E9858D98
:1008D000E7BDAEE380820D0A00E88EB7E58F96E6AD
:1008E0008F8FE8BFB0E7ACA6E28094E2809400E886
:1008F000AEBEE5A487E68F8FE8BFB0E7ACA6E38085
:10090000820D0A00E9858DE7BDAEE68F8FE8BFB0A6
:10091000E7ACA6E380820D0A00E5AD97E7ACA6E45C
:10092000B8B2E68F8FE8BFB0E7ACA6E380820D0ACD
:100930000028E8AFADE8A880494429E380820D0A89
:100940000028E58E82E59586E68F8FE8BFB029E323
:1009500080820D0A0028E4BAA7E59381E68F8FE82C
:10096000BFB029E380820D0A0028E4BAA7E593818D
:10097000E5BA8FE58897E58FB729E380820D0A00F5
:1009800028E69CAAE79FA5E79A84E7B4A2E5BC9570
:10099000E580BC29E380820D0A00E68AA5E5918AFC
:1009A000E68F8FE8BFB0E7ACA6E380820D0A00E5D2
:1009B00085B6E4BB96E68F8FE8BFB0E7ACA6EFBC88
:1009C0008CE68F8FE8BFB0E7ACA6E4BBA3E7A081BD
:1009D000EFBC9A000D0A00E88EB7E58F96E68EA56B
:1009E000E58FA3E380820D0A00E88EB7E58F96E7D6
:1009F0008AB6E68081E380820D0A00E5908CE6AD40
:100A0000A5E5B8A7E380820D0A00E99499E8AFAFA5
:100A1000EFBC9AE69CAAE5AE9AE4B989E79A84E627
:100A2000A087E58786E8BE93E585A5E8AFB7E6B180
:100A300082E380820D0A00555342E7B1BBE8BE93C2
:100A4000E585A5E8AFB7E6B182EFBC9A0D0A00557F
:100A50005342E58E82E59586E8BE93E585A5E8AF2D
:100A6000B7E6B182EFBC9A0D0A00E99499E8AFAFFE
:100A7000EFBC9AE69CAAE5AE9AE4B989E79A84E8C5
:100A8000BE93E585A5E8AFB7E6B182E380820D0AA3
:100A900000555342E6A087E58786E8BE93E587BA0E
:100AA000E8AFB7E6B182EFBC9A00E6B885E999A451
:100AB000E789B9E680A7E380820D0A00E8AEBEE7C9
:100AC000BDAEE59CB0E59D80E38082E59CB0E59DF0
:100AD00080E4B8BAEFBC9A00E8AEBEE7BDAEE985E7
:100AE0008DE7BDAEE380820D0A00E8AEBEE7BDAE85
:100AF000E68F8FE8BFB0E7ACA6E380820D0A00E87E
:100B0000AEBEE7BDAEE789B9E680A7E380820D0AF5
:100B100000E8AEBEE7BDAEE68EA5E58FA3E380821A
:100B20000D0A00E99499E8AFAFEFBC9AE69CAAE5FC
:100B3000AE9AE4B989E79A84E6A087E58786E8BE9D
:100B400093E587BAE8AFB7E6B182E380820D0A0089
:100B5000555342E7B1BBE8BE93E587BAE8AFB7E6C5
:100B6000B182EFBC9A00E8AEBEE7BDAEE7A9BAE934
:100B700097B2E380820D0A00E69CAAE79FA5E8AF42
:100B8000B7E6B182E380820D0A00555342E58E82BA
:100B9000E59586E8BE93E587BAE8AFB7E6B182EFA0
:100BA000BC9A0D0A00E99499E8AFAFEFBC9AE69CB5
:100BB000AAE5AE9AE4B989E79A84E8BE93E587BAD4
:100BC000E8AFB7E6B182E380820D0A00555342E7F1
:100BD000ABAFE782B930E8BE93E587BAE4B8ADE6DB
:100BE00096ADE380824F555428486F7374202D3E94
:100BF00020446576696365290D0A00555342E7ABC9
:100C0000AFE782B930E8BE93E585A5E4B8ADE696D6
:100C1000ADE38082494E28446576696365202D3EA8
:100C200020486F7374290D0A00555342E7ABAFE7B4
:100C300082B931E8BE93E587BAE4B8ADE696ADE394
:100C400080820D0A00555342E7ABAFE782B931E825
:100C5000BE93E585A5E4B8ADE696ADE380820D0AC6
:100C600000555342E7ABAFE782B932E8BE93E58760
:100C7000BAE4B8ADE696ADE380820D0A0055534262
:100C8000E7ABAFE782B932E8BE93E585A5E4B8AD3E
:100C9000E696ADE380820D0A00120110010000000B
:100CA00010888801000001010203010902220001ED
:100CB000010080320904000001030102000501095E
:100CC00002A1010901A10005091901290315002547
:100CD00001950375018102950175058103050109DF
:100CE00030093109381581257F750895038106C0C3
:100CF000C0092110012101223400070581031000E1
:100D00000A040309042E0368007400740070003A9A
:100D1000002F002F007700770077002E006C00690D
:100D20000073006F006E0067007A0065002E00639C
:100D3000006E000000000000000000000000000045
:100D400000000000000000000000000000000000A3
:100D5000000000000000001803750073006200200E
:100D60009F07680CFF620079004E677E67FD6C008C
:100D700000000000000000000016033200300031C7
:0F0D80000038002D00300035002D00320030000B
:10198D00E4FDFCC3ED9FEC9E5015E4FBFA0BBB0090
:0F199D00010AEB64E34A70F50DBD00010C80E414
:0119AC002218
:1019AD007BFF7A087960121A337FF3121AB17F0622
:0F19BD00121AC97F47121AC97FE87E0302198DDB
:101A07007BFF7A087975121A337FF3121AB17F16A2
:081A1700121AC97F47021AC927
:091B00007BFF7A087984021A3394
:0D1A98007BFF7A087999121A33E4F50822D1
:10170300900CA0E493FDFFD3E5139FE512940040F2
:1017130029AB20AA21A9227F011215F2900CA0E483
:1017230093FF7E00C3E5139FF513E5129EF512EFB9
:101733002522F522EE3521F52122E513451260130A
:10174300AD13AB20AA21A9227F011215F2E4F512F1
:10175300F51322E523B40110AB20AA21A922E4FD4D
:091763007F011215F2E4F52322C6
:100D8F001212A0F5099000011212B9F50A90000392
:100D9F001212B9FFEFFE9000021212B9FD3395E067
:100DAF00FCE42DF50CEE3CF50B9000051212B9FF8B
:100DBF00EFFE9000041212B9FD3395E0FCE42DF51F
:100DCF000EEE3CF50D9000071212B9FFEFFE9000EA
:100DDF00061212B9FD3395E0FCE42DF510EE3CF54B
:100DEF000FE50920E7030210C2C413540314700364
:100DFF000210A71470030210B0240260030210B98E
:100E0F007BFF7A0879AE121A33E50A700302108C51
:100E1F0024FA601E24FC700302108324FE70030268
:100E2F0010952404600302109E7BFF7A0879C70295
:100E3F0011A67BFF7A0879D9121A33E50B24FE60CD
:100E4F005D147003020F6F24E17003021027242139
:100E5F00600302106B7BFF7A0879EF121A3375204B
:100E6F00FF75210C752299900C99E493FF7E00D3A6
:100E7F00E5109FE50F9E401D8E128F13900CA0E47E
:100E8F0093FD7C00AE12AF1312131AED4C700C755C
:100E9F00230102118D850F1285101302118D7BFF17
:100EAF007A097904121A337514FF75150C7516AB80
:100EBF007517FF75180C7519B4751AFF751B0C751E
:100ECF001CF1751DFF751E0C751FFA783F7C007D98
:100EDF0000AB14AA15A9167E007F0912127A784862
:100EEF007C007D00AB17AA18A9197E007F0912128A
:100EFF007A78517C007D00AB1AAA1BA91C7E007F5B
:100F0F000912127A785A7C007D00AB1DAA1EA91F08
:100F1F007E007F0712127A75200075210075223F1F
:100F2F00AB14AA15A91690000212136FFAE5F0FF81
:100F3F00EAF512EFF513D3E5109513E50F9512406F
:100F4F0016900CA0E493FD7C00AE1212131AED4C18
:100F5F00700B7523018006850F1285101302118DFA
:100F6F007BFF7A097919121A33E50C14602114608A
:100F7F0035146049240370637BFF7A097931121AA3
:100F8F00337520FF75210D752201900D0180437B74
:100F9F00FF7A097941121A337520FF75210D7522D9
:100FAF0005900D05802C7BFF7A097955121A337540
:100FBF0020FF75210D752257900D5780157BFF7AF5
:100FCF00097969121A337520FF75210D75227990F1
:100FDF000D79E493751200F51380117BFF7A09796F
:100FEF0080121A33E4F512F513752301D3E510952A
:100FFF0013E50F95124018900CA0E493FD7C00AE02
:10100F0012AF1312131AED4C700B75230180068566
:10101F000F1285101302118D7BFF7A09799A121A1C
:10102F00337520FF75210C7522BD751200751334B1
:10103F00D3E5109513E50F95124018900CA0E4938B
:10104F00FD7C00AE12AF1312131AED4C700B75230B
:10105F00018006850F1285101302118D7BFF7A090F
:10106F0079AF121A33E50BFF1219687BFF7A0979F2
:10107F00D40211A67BFF7A0979D70211A67BFF7ADA
:10108F000979E90211A67BFF7A0979FB0211A67B88
:10109F00FF7A0A790A0211A67BFF7A0A79370211C1
:1010AF00A67BFF7A0A794F0211A67BFF7A0A796A2B
:1010BF000211A6E509C413540314700302116D1431
:1010CF007003021198240260030211A07BFF7A0AB9
:1010DF007991121A33E50A24FD606B24FE601924FE
:1010EF00FE605B24FE603B24FE6063240A70677B16
:1010FF00FF7A0A79AA0211A67BFF7A0A79BC121A23
:10110F0033AF0CE50C1219687BFF7A0979D4121AE8
:10111F0033AF0CE50C121A8AE4F512F5137523019F
:10112F00805C7BFF7A0A79D8121A33E50CF511AF80
:10113F0011121A1FE4F512F51375230180407BFF7E
:10114F007A0A79EA80517BFF7A0A79FF80497BFF1F
:10115F007A0B791180417BFF7A0B792380397BFFE2
:10116F007A0B7950121A33E50A24F670147BFF7A42
:10117F000B7966121A33E4F512F513752301021772
:10118F00037BFF7A0B7978800E7BFF7A0B798A804D
:0B119F00067BFF7A0B79A5121A3322A1
:1018D3007BFF7A0B79CC121A33E4FF120003EF7B00
:1018E300007A0079BF7D1030E514E4FF1215501221
:1018F300000E121B247B007A0079BF020D8FE4FFD8
:07190300121550121B2422F3
:101A69007BFF7A0B79FB121A337F011200030217ED
:011A79000369
:091B09007BFF7A0C7929021A33E2
:101A46007BFF7A0C7945121A337F03120003E4F503
:021A5600082264
:091B12007BFF7A0C7961021A33A1
:091B1B007BFF7A0C797D021A337C
:03000000021AD50C
:0C1AD500787FE4F6D8FD7581D502181763
:1011AA00E709F608DFFA8046E709F208DFFA803E27
:1011BA0088828C83E709F0A3DFFA8032E309F60814
:1011CA00DFFA8078E309F208DFFA807088828C837C
:1011DA00E309F0A3DFFA806489828A83E0A3F60830
:1011EA00DFFA805889828A83E0A3F208DFFA804C0A
:1011FA0080D280FA80C680D4806980F280338010E1
:10120A0080A680EA809A80A880DA80E280CA803349
:10121A0089828A83ECFAE493A3C8C582C8CCC583C1
:10122A00CCF0A3C8C582C8CCC583CCDFE9DEE78091
:10123A000D89828A83E493A3F608DFF9ECFAA9F010
:10124A00EDFB2289828A83ECFAE0A3C8C582C8CC66
:10125A00C583CCF0A3C8C582C8CCC583CCDFEADE7F
:10126A00E880DB89828A83E493A3F208DFF980CCE1
:10127A0088F0EF60010E4E60C388F0ED2402B404DA
:10128A000050B9F582EB2402B4040050AF23234581
:06129A0082239011FA739B
:1012A000BB010689828A83E0225002E722BBFE024C
:0912B000E32289828A83E493227F
:1012B900BB010CE58229F582E5833AF583E02250EA
:1012C90006E92582F8E622BBFE06E92582F8E22234
:0D12D900E58229F582E5833AF583E493224E
:1012E600F8BB010DE58229F582E5833AF583E8F03E
:1012F600225006E92582C8F622BBFE05E92582C8EA
:02130600F222D1
:10130800EF8DF0A4A8F0CF8CF0A428CE8DF0A42EF9
:02131800FE22B3
:10131A00BC000BBE0029EF8DF084FFADF022E4CCB7
:10132A00F875F008EF2FFFEE33FEEC33FCEE9DEC80
:10133A00984005FCEE9DFE0FD5F0E9E4CEFD22EDC6
:10134A00F8F5F0EE8420D21CFEADF075F008EF2F10
:10135A00FFED33FD4007985006D5F0F222C398FD01
:05136A000FD5F0EA229E
:10136F00BB0110E58229F582E5833AF583E0F5F0BC
:10137F00A3E0225009E92582F886F008E622BBFE99
:10138F000AE92582F8E2F5F008E222E5832AF583DF
:08139F00E993F5F0A3E99322A4
:1013A70075F008758200EF2FFFEE33FECD33CDCCFD
:1013B70033CCC58233C5829BED9AEC99E582984080
:1013C7000CF582EE9BFEED9AFDEC99FC0FD5F0D65D
:1013D700E4CEFBE4CDFAE4CCF9A88222B800C1B987
:1013E7000059BA002DEC8BF084CFCECDFCE5F0CBC5
:1013F700F97818EF2FFFEE33FEED33FDEC33FCEBFE
:1014070033FB10D703994004EB99FB0FD8E5E4F9B8
:10141700FA227818EF2FFFEE33FEED33FDEC33FCA5
:10142700C933C910D7059BE99A4007EC9BFCE99A99
:10143700F90FD8E0E4C9FAE4CCFB2275F010EF2FDE
:10144700FFEE33FEED33FDCC33CCC833C810D707DE
:101457009BEC9AE899400AED9BFDEC9AFCE899F819
:0E1467000FD5F0DAE4CDFBE4CCFAE4C8F922AC
:00000001FF
