:100026006B65793120E68C89E4B88BEFBC8CE5856D
:1000360089E6A087E5B7A6E7A7BB0D0A006B657939
:100046003220E68C89E4B88BEFBC8CE58589E6A086
:1000560087E58FB3E7A7BB0D0A006B65793320E60A
:100066008C89E4B88BEFBC8CE58589E6A087E4B87B
:100076008AE7A7BB0D0A006B65793420E68C89E414
:10008600B88BEFBC8CE58589E6A087E4B88BE7A73B
:10009600BB0D0A006B65793520E68C89E4B88BEFD9
:1000A600BC8CE58589E6A087E4B88BE6BB9A0D0A89
:1000B600006B65793620E68C89E4B88BEFBC8CE55D
:1000C6008589E6A087E4B88AE6BB9A0D0A006B65C7
:1000D600793720E68C89E4B88BEFBC8CE9BCA0E6C6
:1000E600A087E5B7A6E994AE0D0A006B65793820BE
:1000F600E68C89E4B88BEFBC8CE9BCA0E6A087E56A
:100106008FB3E994AE0D0A00596F757220443132EF
:10011600206368697027732049442069733A200078
:100126002E20494420697320636F7272657263746E
:10013600210D0A0D0A002E20494420697320696E9C
:10014600636F727265726374210D0A0D0A002A2AA2
:100156002A2A2A2A2A2A2A2A2A2A2A2A2A2A2A2AF9
:100166002A2A2A2A2A2A2A2A2A2A2A2A2A2A2A2AE9
:100176002A2A2A2A2A2A2A2A2A2A2A2A2A2A2A2AD9
:100186002A2A2A2A2A2A2A2A2A2A2A2A2A2A2A2AC9
:100196002A2A0D0A000000000000000000000000EE
:1001A6000000000000000000000000000000000049
:1001B60000002A2A2A2A2A2A20202020202020203D
:1001C60020202020202020202020202020205553C1
:1001D60042E9BCA0E6A08720202020202020202065
:1001E6002020202020202020202020202020202009
:1001F60020202A2A2A2A2A2A0D0A000000000000A6
:1002060000000000000000000000000000000000E8
:100216000000000000002A2A2A2A2A2A202020205C
:1002260020202020202020202020202020202020C8
:100236002020415438395335322043505520202050
:1002460020202020202020202020202020202020A8
:10025600202020202A2A2A2A2A2A0D0A0000000005
:100266000000000000000000000000000000000088
:10027600000000000000000000002A2A2A2A2A2A7C
:100286002020202020202020202020202020202068
:100296002020E5BBBAE7AB8BE697A5E69C9FEFBCB3
:1002A6009A000000000000000000000000000000AE
:1002B6000000000000000000000000000000000038
:1002C6000000000000000000000000000000000028
:1002D6000000000000000000000000000000536560
:1002E6007020313720323031370000000000000026
:1002F60000000000000000000000000000000000F8
:1003060000000000000000000000000000000000E7
:1003160000000000000000000000000000000000D7
:1003260000000000000000000000000000000000C7
:1003360000000000000000000000000000000000B7
:1003460000002020202020202020202020202020E7
:100356002020202A2A2A2A2A2A0D0A000000000024
:100366000000000000000000000000000000000087
:100376000000000000000000000000000000000077
:100386000000000000000000000000000000000067
:100396000000000000000000000000000000000057
:1003A6000000000000002A2A2A2A2A2A20202020CB
:1003B600202020202020202020202020202020E572
:1003C600BBBAE7AB8BE697B6E997B4EFBC9A0000E9
:1003D6000000000000000000000000000000000017
:1003E6000000000000000000000000000000000007
:1003F60000000000000000000000000000000000F7
:100406000000000000000000000032323A34383AA2
:10041600343400000000000000000000000000006E
:1004260000000000000000000000000000000000C6
:1004360000000000000000000000000000000000B6
:1004460000000000000000000000000000000000A6
:100456000000000000000000000000000000000096
:100466000000000000000000000000000000202046
:100476002020202020202020202020202020202076
:10048600202A2A2A2A2A2A0D0A0000000000000033
:100496000000000000000000000000000000000056
:1004A6000000000000000000000000000000000046
:1004B6000000000000000000000000000000000036
:1004C6000000000000000000000000000000000026
:1004D60000002A2A2A2A2A2A20202020202020201A
:1004E600202020202020202020202020E4BD9CE861
:1004F6008085EFBC9A6C69736F6E677A65202020E1
:1005060020202020202020202020202020202020E5
:100516002020202A2A2A2A2A2A0D0A000000000062
:1005260000000000000000000000000000000000C5
:100536000000000000002A2A2A2A2A2A2020202039
:1005460020202020202020202020202020202020A5
:10055600E6ACA2E8BF8EE8AEBFE997AEE4BD9CE884
:100566008085E79A8420202020202020202020201B
:1005760020202020202020202020202A2A2A2A2A43
:100586002A0D0A0000000000000000000000000024
:10059600000000000000000000002A2A2A2A2A2A59
:1005A600202020202020424C4F47EFBC9A687474CC
:1005B600703A2F2F626C6F672E6373646E2E6E65B2
:1005C600742F736F6E677A655F6C656520202020D7
:1005D6002020202020202020202A2A2A2A2A2A0DEC
:1005E6000A000000000000000000000000000000FB
:1005F60000000000000000000000000000002A2AA1
:100606002A2A2A2A202020202020E8AFB4E6988E25
:10061600EFBC9AE4BC98E58C96E794B5E88491E53E
:100626009C88E59C88E79A84555342E9BCA0E6A0DD
:10063600872020202020202020202020202020204D
:1006460020202020202020202A2A2A2A2A2A0D0A91
:100656000000000000000000000000000000000094
:1006660000002A2A2A2A2A2A202020202020202088
:1006760020202020202020202020E8AFB7E68C89EB
:100686004B312D4B38E58886E588ABE8BF9BE8A162
:100696008CE6B58BE8AF9520202020202020202056
:1006A60020202020202020202A2A2A2A2A2A0D0A31
:1006B6000000000000000000000000000000000034
:1006C6000000000000002A2A2A2A2A2A20202020A8
:1006D6004B313AE58589E6A087E5B7A6E7A7BB20B3
:1006E600204B323AE58589E6A087E58FB3E7A7BBBD
:1006F60020204B333AE58589E6A087E4B88AE7A748
:10070600BB204B343AE58589E6A087E4B88BE7A79A
:10071600BB2020202A2A2A2A2A2A0D0A00000000A5
:10072600000000000000000000002A2A2A2A2A2AC7
:10073600202020204B353AE6BB9AE8BDAEE4B88BC4
:10074600E6BB9A20204B363AE6BB9AE8BDAEE4B843
:100756008AE6BB9A20204B373AE9BCA0E6A087E59B
:10076600B7A6E994AE204B383AE9BCA0E6A087E5E7
:100776008FB3E994AE2020202A2A2A2A2A2A0D0A93
:1007860000000000000000000000000000002A2A0F
:100796002A2A2A2A2A2A2A2A2A2A2A2A2A2A2A2AB3
:1007A6002A2A2A2A2A2A2A2A2A2A2A2A2A2A2A2AA3
:1007B6002A2A2A2A2A2A2A2A2A2A2A2A2A2A2A2A93
:1007C6002A2A2A2A2A2A2A2A2A2A2A2A2A2A2A2A83
:1007D6002A2A0D0A000000000000000000000000A8
:1007E6000000000000000000000000000000000003
:0207F600000001
:100AD8007834E654C0F67832E654C0F67830E654F6
:100AE8003F700A7834E670057832E660787830E648
:100AF80030E0097BFF7A007926120EFA7830E6306A
:100B0800E1097BFF7A007943120EFA7830E630E289
:100B1800097BFF7A007960120EFA7830E630E30933
:100B28007BFF7A00797D120EFA7830E630E4097B93
:100B3800FF7A00799A120EFA7830E630E5097BFFE1
:100B48007A0079B7120EFA7830E630E6097BFF7A38
:100B58000079D4120EFA7830E630E7097BFF7A0084
:0D0B680079F1120EFAE47834F67832F622B4
:100DAC00E4F517F518AE17AF187C007D64120860D7
:100DBC0074542FF974013EFA7BFF120EFA0518E5F4
:100DCC001870020517C39411E5176480948040D500
:010DDC0022F4
:100D3100120F0D8E178F187BFF7A01790E120EFAA2
:100D4100AF18AE17120D6FE518B41210E517B410F5
:100D51000B7BFF7A017926120EFA800E7BFF7A0156
:0D0D6100793C120EFA7EFF7FFF22E4FEFFB8
:010D6E002262
:100CE6007FF4120F55120F648F17E51730E70312C2
:100CF6000FA4E51730E603120F3CE51730E00312A8
:100D06000FADE51730E103120FB6E51730E2031217
:100D16000FBFE51730E303120FC8E51730E40312DF
:0A0D26000FD1E51730E503120FDAD4
:010D300022A0
:100E0A00D2AF120E93120EB1120DAC120D31120E98
:100E1A0074120ECE20B203120CE67830E6F4F5A076
:050E2A00120AD880EF60
:100F1E003031323334353637383941424344454621
:100EB100C2AF53890F438920759850758DF4758B96
:0D0EC100F4438780D2ACD28ED29CD2AF22F7
:03002300020F4980
:0C0F4900309803C29832C299752C003217
:0A0F90008F99752C01E52C70FC22EE
:100EFA001207F8FF600C120F90740129F9E43AFA0C
:030F0A0080EE2254
:080C10008F0B8E0A8D098C0880
:100C1800750C09E47B0AFAF9F8AF0BAE0AAD09AC1A
:100C2800081208AEEB2430FF740D250CF8A607AFA8
:100C38000BAE0AAD09AC08E47B0AFAF9F81208AE63
:100C48008F0B8E0A8D098C08150CC3E50C648094F3
:100C58008050C0E4F50C740D250CF8E6B430070597
:100C68000CE50CB409F0C3E50C6480948A500E744A
:0D0C78000D250CF8E6FF120F90050C80E929
:010C8500224C
:100D6F00E4F51F751930751A787D057A00EF540F69
:100D7F00241EF582EA340FF583E493FC74192DF8E1
:100D8F00A604EEC4F854F0C868FEEFC4540F48FF31
:0D0D9F001DBD01D77B007A007919020EFA04
:0A0F9A00752C018F99E52C70FC22E4
:100E2F00AE077F30120F9A7F78120F9AEEC4540FCD
:100E3F00900F1E93FF120F9AEE540F93FF120F9AFB
:050E4F007F20020F9A54
:0B0F85005389F0438901D2A9D28C22CD
:100E93007590FFE47830F618F67833F6782EF67806
:0E0EA30031F608F67834F6120F85752D01220F
:03000B00020C865E
:100C8600C0E0C0D075D000C000C001758CDC758A8C
:100C960010E52D6042E590F4782EF6792EE778334C
:100CA60066600B782F760018E67833F68029782F61
:100CB60006E6C39401402076017833E67830F608DC
:100CC600E6F41856783246F67830E6F40856783464
:100CD60046F67830E608F6D001D000D0D0D0E03223
:100DDD00E8AFBBE7ABAFE782B900E7BC93E586B2FE
:100DED00E58CBA00E5AD97E88A82E380820D0A00B2
:0D0DFD000D0A00E58699E7ABAFE782B9006B
:0C0F5500D2B5C2B68F80D2B67580FF22E4
:030F6100120F5517
:080F6400C2B5C2B7AF80D2B7DD
:010F6C002262
:100F0D007FFD120F61AD077C00120F64EFFEAF0580
:010F1D0022B1
:0C0F6D00C2B5C2B68F80D2B67580FF22DC
:08000300EF2440FF120F6122FF
:030FED00020F559B
:050FE3007FF2020F5532
:10000E007F01120FED7FF1120F55E4FF120FED7FFE
:04001E00F1020F5587
:080A36008F208B218A22892305
:100A3E00120FED7FF0120F55120F64120F648F25F7
:100A4E00E525D39D40028D257BFF7A0D79DD120EB3
:100A5E00FAE520C313FFE4FCFDFE120C107BFF7AB7
:100A6E000D79E7120EFAAF25E4FCFDFE120C107B99
:100A7E00FF7A0D79F1120EFAE4F524E524C39525DB
:100A8E005036C2B7AB21AA22A923852482758300D2
:100A9E00E58012083ED2B7852482758300120811B4
:100AAE00FF120E2FE52404540F70097BFF7A0D7987
:100ABE00FD120EFA052480C3E525540F60097BFF55
:090ACE007A0D79FD120EFAAF2534
:010AD70022FC
:050FE8007FFA020F5525
:0A0B75008F268D278B288A29892AF4
:100B7F00120FED7FF0120F55E4FF120F6DAF27121A
:100B8F000F6D7BFF7A0E7900120EFAE526C313FF65
:100B9F00E4FCFDFE120C107BFF7A0D79E7120EFAC2
:100BAF00AF27E4FCFDFE120C107BFF7A0D79F112DA
:100BBF000EFAE4F52BE52BC39527502DC2B6AB28C3
:100BCF00AA29A92A852B82758300120811FFF580A7
:100BDF00D2B6120E2FE52B04540F70097BFF7A0D3E
:100BEF0079FD120EFA052B80CCE527540F60097B97
:100BFF00FF7A0D79FD120EFA7580FF120FE8AF27FD
:010C0F0022C2
:0E0F2E00AE077FD0120F55EE4480FF020F6D0C
:100EE600AE077FD8120F55EE60047F018002E4FF43
:040EF600120F6D2248
:10094000E696ADE5BC80555342E8BF9EE68EA5E332
:1009500080820D0A00E8BF9EE68EA5555342E380D3
:10096000820D0A00555342E680BBE7BABFE68C828F
:10097000E8B5B7E380820D0A00555342E680BBE735
:10098000BABFE5A48DE4BD8DE380820D0A00555306
:1009900042E7ABAFE782B930E8BE93E587BAE4B887
:1009A000ADE696ADE380820D0A00555342E7ABAF4A
:1009B000E782B930E8BE93E585A5E4B8ADE696AD2B
:1009C000E380820D0A00555342E7ABAFE782B931AD
:1009D000E8BE93E587BAE4B8ADE696ADE380820D54
:1009E0000A00555342E7ABAFE782B931E8BE93E561
:1009F00085A5E4B8ADE696ADE380820D0A005553B7
:100A000042E7ABAFE782B932E8BE93E587BAE4B814
:100A1000ADE696ADE380820D0A00555342E7ABAFD9
:100A2000E782B932E8BE93E585A5E4B8ADE696ADB8
:060A3000E380820D0A00C4
:100E5400E4FDFCC3ED9FEC9E5015E4FBFA0BBB00D4
:0F0E6400010AEB64E34A70F50DBD00010C80E458
:010E7300225C
:100E74007BFF7A097940120EFA7FF3120F557F0631
:0F0E8400120F6D7F47120F6D7FE87E03020E5431
:100ECE007BFF7A097955120EFA7FF3120F557F16B2
:080EDE00120F6D7F47020F6D3A
:090FA4007BFF7A097964020EFA60
:0D0F3C007BFF7A097979120EFAE4F50022A4
:090FAD007BFF7A09798E020EFA2D
:090FB6007BFF7A0979AA020EFA08
:090FBF007BFF7A0979C6020EFAE3
:090FC8007BFF7A0979E2020EFABE
:090FD1007BFF7A0979FE020EFA99
:090FDA007BFF7A0A791A020EFA73
:03000000020F7973
:0C0F7900787FE4F6D8FD758134020E0A82
:1007F800BB010689828A83E0225002E722BBFE02FF
:09080800E32289828A83E4932231
:10081100BB010CE58229F582E5833AF583E022509C
:1008210006E92582F8E622BBFE06E92582F8E222E6
:0D083100E58229F582E5833AF583E4932200
:10083E00F8BB010DE58229F582E5833AF583E8F0F0
:10084E00225006E92582C8F622BBFE05E92582C89C
:02085E00F22284
:10086000EF8DF0A4A8F0CF8CF0A428CE8DF0A42EAC
:02087000FE2266
:1008720075F008758200EF2FFFEE33FECD33CDCC3D
:1008820033CCC58233C5829BED9AEC99E5829840C0
:100892000CF582EE9BFEED9AFDEC99FC0FD5F0D69D
:1008A200E4CEFBE4CDFAE4CCF9A88222B800C1B9C7
:1008B2000059BA002DEC8BF084CFCECDFCE5F0CB05
:1008C200F97818EF2FFFEE33FEED33FDEC33FCEB3E
:1008D20033FB10D703994004EB99FB0FD8E5E4F9F9
:1008E200FA227818EF2FFFEE33FEED33FDEC33FCE6
:1008F200C933C910D7059BE99A4007EC9BFCE99ADA
:10090200F90FD8E0E4C9FAE4CCFB2275F010EF2F1E
:10091200FFEE33FEED33FDCC33CCC833C810D7071E
:100922009BEC9AE899400AED9BFDEC9AFCE899F859
:0E0932000FD5F0DAE4CDFBE4CCFAE4C8F922EC
:00000001FF
