:100FFB002020D6C7C4DCCCBDB2E2D0A1B3B500CEA5
:0B100B00C2B6C83A00CAAAB6C83A0034
:10078C0012000312106B120E397F147E00120FDD53
:10079C007BFF7A0F79FB7F80120E757BFF7A1079C5
:1007AC000A7F98120E757BFF7A1079107F9C120EBF
:1007BC0075120AC012094E7F9B120F9F120CF37C0C
:1007CC00037DE81202047E007F64CFCDCFCECCCE69
:1007DC00120204EF2430FF120FBE120CF37C007DCA
:1007EC00641202047E007F0ACFCDCFCECCCE120293
:1007FC0004EF2430FF120FBE120B57300105120EFE
:10080C00D9C201300203120A14120CF37C037DE8E6
:10081C001202047E007F64CFCDCFCECCCE12020468
:10082C00C3EF9402EE94004026120CF37C007D641E
:10083C001202047E007F0ACFCDCFCECCCE120204A2
:10084C00D3EF9407EE94004006120D6112094EE5A9
:10085C007575F00A8475F00A84E5F0C394064013AC
:10086C00E57575F00A84E5F0C394004006120D613D
:09087C0012094E1208850207C39F
:100FDD00D3EF9400EE940040147D6E7C00ED1D70F7
:0D0FED00011CED4C70F7EF1F70E61E80E355
:010FFA0022D4
:0B109100EF1FAC0670011E4C70F62231
:0E105D00C285D286D287E5A020E7FBC287229B
:100F9F008F0D12105DC285C2867FC87E0012109120
:0F0FAF00D287850DA07FC87E00121091C28722C5
:100FBE008F0D12105DD285C2867FC87E00121091F1
:0F0FCE00D287850DA07FC87E00121091C28722A6
:100E39007FA07E0F1210917F30120F9F7F647E007A
:100E49001210917F30120F9F7F257E001210917F23
:100E59000C120F9F7F647E001210917F01120F9F69
:0C0E69007F107E271210917F06020F9F61
:100E75008B0A8A0B890C120F9F7F057E00801EABA3
:100E85000AAA0BA90C1201EBFF6017120FBE740121
:100E9500250CF50CE4350BF50B7F107E2712109110
:030EA50080DD22CB
:100616004F4B00BDD3CAD5B6CCD0C55761697469F6
:100626006E6700202020202020202020202020204F
:1006360020202000B7A2CBCDB6CCD0C5D6D02E2E4A
:100646002E002B434D5449007265706F7274006F13
:1006560070656E6C656400636C6F73656C656400D1
:1006660041540D0041542B43504D533D224D5422CD
:100676002C224D54222C224D54220D0041542B4342
:100686004E4D493D322C310D0041542B434D4746CA
:100696003D310D0041542B434D47523D310D004134
:1006A600542B434D47443D310D0041542B434D4798
:1006B600463D300D0041542B43534D503D31372CB0
:1006C6003136372C302C380D0041542B43534353CD
:1006D6003D47534D0D0041542B434D47533D353453
:1006E6000D0030383931363833313038393034311D
:1006F60030354630313130303042383138313233AE
:1007060039393937323146353030303841370032B1
:10071600383546353335323444363843303644344A
:100726004237334146353838333645323935454117
:100736003634453341464631410030303243364542
:10074600374635454136344533414646314100301A
:100756003033300030303331003030333200303017
:1007660033330030303334003030333500303033FB
:1007760036003030333700303033380030303339DC
:060786000035454136007C
:03000E00014B00A3
:10103100759850E4F587438920758DFD758BFDD238
:061041008ED2ACD2AF22FA
:060F7F007BFF7A077955A3
:100F8500C2AC1201EB6010F5993099FDC29974015C
:0A0F950029F9E43AFA80EBD2AC220D
:0C0016007F287821E4F608DFFCE4F54BBD
:0100220022BB
:060F5B007BFF7A06791607
:100F61008B0A8A0B890C8B108A1189127B007A00FB
:0E0F71007921120C71E94A4B6002D322C3228F
:10026700120CF38E498F4A7C037DE81202047E004C
:100277007F64CFCDCFCECCCE1202048F0AAE49AF6A
:100287004A7C007D641202047E007F0ACFCDCFCE68
:10029700CCCE1202048F0B7F90120F9F7F54120F48
:1002A700BEE50A2430FF120FBEE50B2430FF120F04
:1002B700BEE50A700A120F7F7FE87E03120FDDE5A5
:1002C7000AB401107BFF7A07795A120F857FE87EFF
:1002D70003120FDDE50AB402107BFF7A07795F127C
:1002E7000F857FE87E03120FDDE50AB403107BFF5D
:1002F7007A077964120F857FE87E03120FDDE50A1E
:10030700B404107BFF7A077969120F857FE87E03B3
:10031700120FDDE50AB405107BFF7A07796E120F1D
:10032700857FE87E03120FDDE50AB406107BFF7AAE
:10033700077973120F857FE87E03120FDDE50AB494
:1003470007107BFF7A077978120F857FE87E031203
:100357000FDDE50AB408107BFF7A07797D120F8558
:100367007FE87E03120FDDE50AB409107BFF7A07E9
:100377007982120F857FE87E03120FDDE50B700A85
:10038700120F7F7FE87E03120FDDE50BB401107BB0
:10039700FF7A07795A120F857FE87E03120FDDE592
:1003A7000BB402107BFF7A07795F120F857FE87E17
:1003B70003120FDDE50BB403107BFF7A0779641294
:1003C7000F857FE87E03120FDDE50BB404107BFF7A
:1003D7007A077969120F857FE87E03120FDDE50B37
:1003E700B405107BFF7A07796E120F857FE87E03CD
:1003F700120FDDE50BB406107BFF7A077973120F36
:10040700857FE87E03120FDDE50BB407107BFF7ACB
:10041700077978120F857FE87E03120FDDE50BB4AD
:1004270008107BFF7A07797D120F857FE87E03121C
:100437000FDDE50BB409107BFF7A077982120F8570
:070447007FE87E03120FDDC8
:01044E00228B
:10044F00E57575F00A8475F00A8485F00AE575750F
:10045F00F00A8485F00B7F94120F9F7F52120FBE0C
:10046F00E50A2430FF120FBEE50B2430FF120FBE3A
:10047F00E50A700A120F7F7FE87E03120FDDE50A8F
:10048F00B401107BFF7A07795A120F857FE87E033C
:10049F00120FDDE50AB402107BFF7A07795F120FA6
:1004AF00857FE87E03120FDDE50AB403107BFF7A28
:1004BF00077964120F857FE87E03120FDDE50AB41A
:1004CF0004107BFF7A077969120F857FE87E03128C
:1004DF000FDDE50AB405107BFF7A07796E120F85E1
:1004EF007FE87E03120FDDE50AB406107BFF7A0763
:1004FF007973120F857FE87E03120FDDE50AB407CB
:10050F00107BFF7A077978120F857FE87E03120F31
:10051F00DDE50AB408107BFF7A07797D120F857F1E
:10052F00E87E03120FDDE50AB409107BFF7A077925
:10053F0082120F857FE87E03120FDDE50B700A1222
:10054F000F7F7FE87E03120FDDE50BB401107BFFF9
:10055F007A07795A120F857FE87E03120FDDE50BBC
:10056F00B402107BFF7A07795F120F857FE87E0355
:10057F00120FDDE50BB403107BFF7A077964120FBE
:10058F00857FE87E03120FDDE50BB404107BFF7A45
:10059F00077969120F857FE87E03120FDDE50BB433
:1005AF0005107BFF7A07796E120F857FE87E0312A5
:1005BF000FDDE50BB406107BFF7A077973120F85F9
:1005CF007FE87E03120FDDE50BB407107BFF7A0780
:1005DF007978120F857FE87E03120FDDE50BB408E3
:1005EF00107BFF7A07797D120F857FE87E03120F4C
:1005FF00DDE50BB409107BFF7A077982120F857F37
:06060F00E87E03120FDD7E
:0106150022C2
:100AC000121031120016120F5B40127BFF7A06796A
:100AD00066120F857FF47E01120FDD80E912001689
:100AE0007BFF7A06796A120F857FF47E01120FDD93
:100AF000120F5B50FB1200167BFF7A067982120FF1
:100B0000857FF47E01120FDD120F5B50FB12001681
:100B10007BFF7A06798F120F857FF47E01120FDD3D
:100B2000120F5B50FB1200167BFF7A0679A5120F9D
:100B3000857FF47E01120FDD120F5B50FB12001651
:100B40007BFF7A0679197F90120E751210851210AC
:070B500085121085021085DB
:10094E007BFF7A0679297F90120E757BFF7A0679E6
:10095E003A7F88120E757BFF7A067966120F857FB5
:10096E00F47E01120FDD7BFF7A0679B0120F857FC0
:10097E00F47E01120FDDC2807BFF7A0679BB120F67
:10098E00857FF47E01120FDD7BFF7A0679CF120F81
:10099E00857FF47E01120FDDC2817BFF7A0679DC42
:1009AE00120F857FF47E01120FDD7BFF7A0679E848
:1009BE00120F857A077915120F85120267D2807B86
:1009CE00FF7A077987120F857FF47E01120FDD7B88
:1009DE00FF7A077940120F8512044FD2817FF47E81
:1009EE0001120FDD75991A1210851210857BFF7A90
:1009FE000679297F90120E757BFF7A0679297F88FA
:060A0E00120E75020AC081
:100885007510FF7511067512487B007A00792112E3
:100895000C71E94A4B700302094D1200167FE87E80
:1008A50003120FDD7BFF7A06799A120F857FE87EAA
:1008B50003120FDD7510FF75110675124E7B007A58
:1008C500007921120C71E94A4B602BE4F508F50912
:1008D500C2807FF47E01120FDDD2807FF47E01128B
:1008E5000FDD0509E50970020508C39408E50894BC
:1008F5000040DD12094E7510FF7511067512557B06
:10090500007A007921120C71E94A4B600312109CA0
:100915007510FF75110675125D7B007A007921123D
:100925000C71E94A4B600312109F1200167FF47E8A
:1009350001120FDD7BFF7A0679A5120F85120F5B79
:0809450050FB120016120AC05B
:01094D002287
:03002300020EA822
:100EA800C0E0C0D075D000C000C2AC309902C29971
:100EB800309817C2987421254BF8A699054BE54B35
:100EC800D394284003754B00D2ACD000D0D0D0E0EA
:010ED80032E7
:10101600D2907F057E00120FDDC2907FF47E011212
:0B1026001091D2907F3C7E00021091E0
:100F0A00E4F50DF50EF50DC290E50EC313F50ED2FC
:100F1A0090309003430E807F0F7E00121091050DD2
:090F2A00E50DC3940840E0AF0E90
:010F3300229B
:020F34008F0D1F
:100F3600E4F50EF50EC290E50D1392907F0F7E003C
:100F4600121091D290E50DC313F50D050EE50EC3F3
:040F5600940840E1DA
:010F5A002274
:100CF3001210167FCC120F347F44120F34121016C9
:100D03007FCC120F347FBE120F34120F0A8F0C12D6
:100D13000F0A7519008F1AE51A751A00F519E50CF3
:100D2300421AC3E51A94FFE51994FF5004C20380E5
:100D330013E51AF4FFE519F4FEEF2401F51AE43E76
:100D4300F519D203AC19AD1AE4120131E4FBFA79B7
:0D0D530020783F12002612016A8E198F1AB7
:010D60002270
:0C108500C2927FC87E00120FDDD29222C2
:100D6100C2927FC87E00120FDDD2927FC87E001230
:100D71000FDDC2927FC87E00120FDDD2927FC87E46
:100D810000120FDDC2927FC87E00120FDDD2927F6A
:100D9100C87E00120FDDC2927FC87E00120FDDD225
:100DA100927FC87E00120FDDC2927FC87E00120FB3
:0A0DB100DDD2927FC87E00020FDD44
:03109C00C29322DA
:03109F00D29322C7
:03000B000210A23E
:0310A200054D32C7
:03001300020DBB20
:090DBB00C0E0C0D075D000C000FA
:100DC400300029E54DC3943F500AE54DC3942140BA
:100DD40003754C007452254CF8A64D754D00054C16
:100DE400E54CB4210CD201754C008005754D00D240
:010DF40000FE
:070DF500D000D0D0D0E032A5
:0D106B00438902E4F58CF58AD2A9D28C22CB
:07000300D28AD2AAD2AF227B
:100A1400E550C4540FFFBF0410E550540FFEBE064A
:100A240008D2B4C2B5D2B6C2B7BF0110E550540F54
:100A3400FFBF0508C2B4D2B5C2B6D2B7E550C4549C
:100A44000FFFBF0410E550540FFFBF0408D2B4D207
:100A5400B5D2B6C2B7E550C4540FFFBF0410E55079
:100A6400540FFEBE0308D2B4C2B5D2B6D2B7BF0487
:100A74000EE550540F7008D2B4D2B5D2B6D2B7E551
:100A840050C4540FFFBF040BE550540FFFBF0503C0
:100A940012109CE550C4540FFFBF040BE550540FD3
:100AA400FFBF070312109FE550C4540F700BE550AD
:0C0AB400540FFFBF070312094EC20222BC
:100ED9007E01E4FD7C0174522EF8E6D394074003A9
:100EE900430780ECC394085004EFC313FF0E0CBCF6
:100EF90009E4744E2DF8A607E4FF0DBD04D6D2020D
:010F090022C5
:0C107800150815081508150815081508BE
:011084002249
:10104700EF1FAA0670011E4A600BE4FDEDC3947DF5
:0510570050EE0D80F7D2
:01105C002271
:100DFC00E4FE757A02209107AD7A057AED70F61251
:100E0C001078121078121078309112757E01757A64
:100E1C000230910CAD7A057AED600580F4E4F57E34
:0C0E2C00EF25E0FFE57E42070EBE08C681
:010E38002297
:100B5700C2917F147E00121047D2911210781210A2
:100B670078121078D291209150757A02209107AFB0
:100B77007A057AEF70F6757A02309107AF7A057ABF
:100B8700EF70F6120DFC8F77120DFC8F7C120DFCA7
:100B97008F79120DFC8F7D120DFC8F74D291E57742
:100BA700257C2579257DF573B5740E857775857C4C
:100BB70078857976857D7BF5737F9F120F9FE57525
:100BC70075F00A8475F00A84E5F02430FF120FBE31
:0E0BD700E57575F00A84E5F02430FF020FBECC
:10002600EC4D6011E8497017ED33EC3304600DE4D4
:10003600FCFFFEFD22E933E8330470F80201D61214
:1000460001A158046009E4CC248150062850090215
:1000560001E02840030201DDC0E0EB4A7044B980AC
:1000660006D0E0FB0201CCEF4E701CBD8008EBFF12
:10007600EAFEE9FD80EBE98DF0A4FEE5F002010F52
:10008600E9CDF9EAFEEBFFEF89F0A4FCE5F0CE89B5
:10009600F0A42EFFE435F0CD89F0A42DFEE435F072
:1000A6008067EF4E7005BD80D780C3EF8BF0A4ACA0
:1000B600F0EE8BF0A42CFCE435F0F8EF8AF0A42CDB
:1000C600E5F038FCE433CB8DF0A42CFCE5F03BF8EE
:1000D600EE8AF0A42CFCE5F038F8E433CF89F0A4DE
:1000E6002CFCE5F038CF3400CE89F0A42FFFE5F0E4
:1000F6003EFEE433C98DF0A42EFEE5F039CD8AF03C
:10010600A42FFFE5F03EFEE43DFD33D0E0FB5007B3
:100116000BBB000F0201E0EC2CFCEF33FFEE33FECD
:06012600ED33FD0201B8FB
:10012C0075F020800E75F010800575F0087D007E4E
:10013C00007F003392D530D503120259EC334010B6
:10014C00EF33FFEE33FEED33FDEC33FCD5F0ED2257
:0E015C00E5F0247EA2D513CC92E7CDCEFF2293
:10016A00EDD2E7CD33EC3392D524814006E4FFFE8D
:10017A00FDFC22FCE4CFCECDCC24E0501174FF80EC
:10018A00EDC3CC13CCCD13CDCE13CECF13CF047089
:07019A00F030D5DE0202592E
:1001A100E9D2E7C933E833F892D5EDD2E7CD33ECA4
:0701B10033FC5002B2D5221D
:1001B800EC30E7100FBF000C0EBE00080DBD0004A8
:1001C8000BEB6014A2D5EB13FCED92E7FD2274FF54
:1001D800FCFDFEFF22E480F8A2D574FF13FC7D80AD
:0301E800E480EFC1
:03000000020BE50B
:0C0BE500787FE4F6D8FD75817E020C2CB0
:1001EB00BB010689828A83E0225002E722BBFE0212
:0901FB00E32289828A83E4932245
:10020400BC000BBE0029EF8DF084FFADF022E4CCDE
:10021400F875F008EF2FFFEE33FEEC33FCEE9DECA7
:10022400984005FCEE9DFE0FD5F0E9E4CEFD22EDED
:10023400F8F5F0EE8420D21CFEADF075F008EF2F37
:10024400FFED33FD4007985006D5F0F222C398FD28
:050254000FD5F0EA22C5
:0E025900C3E49FFFE49EFEE49DFDE49CFC22B6
:100C71008B0D8A0E890FAB10AA11A9121201EB601C
:100C810063AB0DAA0EA90F1201EB605F85101385EE
:100C910011148512158B168A178918AB13AA14A97A
:100CA100151201EBFF6023AB16AA17A9181201EB6D
:100CB1006F7017042515F515E43514F51474012525
:100CC10018F518E43517F51780D1AB13AA14A91537
:100CD1001201EB7002800D7401250FF50FE4350E42
:100CE100F50E809DAB0DAA0EA90F227B007A00792B
:020CF1000022DF
:100BF10002078CE493A3F8E493A34003F68001F287
:100C010008DFF48029E493A3F85407240CC8C33304
:100C1100C4540F4420C8834004F456800146F6DFD3
:100C2100E4800B010204081020408090000EE47E55
:100C3100019360BCA3FF543F30E509541FFEE493C8
:100C4100A360010ECF54C025E060A840B8E493A38F
:100C5100FAE493A3F8E493A3C8C582C8CAC583CABA
:100C6100F0A3C8C582C8CAC583CADFE9DEE780BE72
:0100110000EE
:00000001FF
